17:54:41.513447 IP radiant.49062 > ec2-54-186-23-143.us-west-2.compute.amazonaws.com.https: Flags [P.], seq 1589108372:1589108486, ack 3555412798, win 776, options [nop,nop,TS val 1605486061 ecr 4110218615], length 114
	0x0000:  4500 00a6 0252 4000 4006 27a6 c0a8 0169  E....R@.@.'....i
	0x0010:  36ba 178f bfa6 01bb 5eb7 de94 d3eb 4b3e  6.......^.....K>
	0x0020:  8018 0308 9091 0000 0101 080a 5fb1 c5ed  ............_...
	0x0030:  f4fc f577 1703 0300 6d00 0000 0000 0000  ...w....m.......
	0x0040:  f3f2 0058 5089 7344 4991 7dbb 63f9 c835  ...XP.sDI.}.c..5
	0x0050:  8b8e 7591 a2a4 c110 f496 8c99 eaff 4feb  ..u...........O.
	0x0060:  4f46 4587 1431 1c5f 7a60 a2e1 7a78 75d4  OFE..1._z`..zxu.
	0x0070:  e3fd 43f8 4ddb 81e9 0670 48b8 bc86 6615  ..C.M....pH...f.
	0x0080:  c894 7dfa 17bf dc6c 3bba 620f 2237 7b49  ..}....l;.b."7{I
	0x0090:  8460 7724 c9f2 abf1 f1c9 3c24 0cd9 ae22  .`w$......<$..."
	0x00a0:  7669 cd02 00a9                           vi....
17:54:41.513656 IP radiant.49062 > ec2-54-186-23-143.us-west-2.compute.amazonaws.com.https: Flags [P.], seq 114:160, ack 1, win 776, options [nop,nop,TS val 1605486061 ecr 4110218615], length 46
	0x0000:  4500 0062 0253 4000 4006 27e9 c0a8 0169  E..b.S@.@.'....i
	0x0010:  36ba 178f bfa6 01bb 5eb7 df06 d3eb 4b3e  6.......^.....K>
	0x0020:  8018 0308 aa3a 0000 0101 080a 5fb1 c5ed  .....:......_...
	0x0030:  f4fc f577 1703 0300 2900 0000 0000 0000  ...w....).......
	0x0040:  f410 b546 396e c1a8 c1ab 2240 b546 5979  ...F9n...."@.FYy
	0x0050:  6470 c1ec 5279 552d 7d2f 271d 26d1 4ed1  dp..RyU-}/'.&.N.
	0x0060:  c87b                                     .{
17:54:41.513771 IP radiant.49062 > ec2-54-186-23-143.us-west-2.compute.amazonaws.com.https: Flags [P.], seq 160:575, ack 1, win 776, options [nop,nop,TS val 1605486061 ecr 4110218615], length 415
	0x0000:  4500 01d3 0254 4000 4006 2677 c0a8 0169  E....T@.@.&w...i
	0x0010:  36ba 178f bfa6 01bb 5eb7 df34 d3eb 4b3e  6.......^..4..K>
	0x0020:  8018 0308 eb5f 0000 0101 080a 5fb1 c5ed  ....._......_...
	0x0030:  f4fc f577 1703 0301 9a00 0000 0000 0000  ...w............
	0x0040:  f50b b88a e9c0 3891 f3da 8a54 cfaf bdad  ......8....T....
	0x0050:  26ad 317a 533d 098b 930d 332e 6af2 900c  &.1zS=....3.j...
	0x0060:  5384 7f64 12c3 0a69 3b2c c9fd d85f 544f  S..d...i;,..._TO
	0x0070:  049a 9ab0 50f5 d814 08a4 ae6e ff11 9f8e  ....P......n....
	0x0080:  e93b f1d8 4003 7295 3ca4 35a9 4239 8539  .;..@.r.<.5.B9.9
	0x0090:  4595 b3ab fa52 fd9d df8e 8c2d bfef 2046  E....R.....-...F
	0x00a0:  dd83 9b88 f361 eb6d 9817 4a2b 216f 75e1  .....a.m..J+!ou.
	0x00b0:  0787 8150 9957 26d0 2155 4b15 76fd c2ae  ...P.W&.!UK.v...
	0x00c0:  d6ee 2e86 2b9b 91c4 2c5e 39bc 8469 26c7  ....+...,^9..i&.
	0x00d0:  b821 2177 690e d0cd da2d e149 ffd2 852f  .!!wi....-.I.../
	0x00e0:  9e68 1372 3387 1098 7a5c 8da5 24cf cbb8  .h.r3...z\..$...
	0x00f0:  05a4 750d 295f 9fd9 c3a4 6815 2a22 b577  ..u.)_....h.*".w
	0x0100:  2750 de4f 0802 6074 185c 96ce 7f0e fa5d  'P.O..`t.\.....]
	0x0110:  3919 1f56 54b5 e577 7f7b 5628 9a81 3c1b  9..VT..w.{V(..<.
	0x0120:  405c 1df1 6688 f43a dca7 f52e adc0 1e88  @\..f..:........
	0x0130:  ad82 b1ca 705e 7d6b a46b 9781 564b 2bd2  ....p^}k.k..VK+.
	0x0140:  b62f f2a9 ae81 cb7b af47 03cb 8648 20ca  ./.....{.G...H..
	0x0150:  e266 0ca3 7029 2584 f082 b2ae 32bd 8b4c  .f..p)%.....2..L
	0x0160:  4215 5d82 30ac b233 029e afd7 c52f aac6  B.].0..3...../..
	0x0170:  c534 c306 be12 d8c3 3939 6241 7434 f7d5  .4......99bAt4..
	0x0180:  fc78 26d2 776a 9010 941d 1a6e eacb 252e  .x&.wj.....n..%.
	0x0190:  5792 cb00 5c6a b474 e42a 10ab ac0c 5dec  W...\j.t.*....].
	0x01a0:  9b96 276d c4d7 63e6 138c f7e4 7790 b197  ..'m..c.....w...
	0x01b0:  4b3a b4ed d40a 8264 cfc4 1dc1 3dc7 3d30  K:.....d....=.=0
	0x01c0:  9a89 a5a5 381c 7798 51e0 cb52 d264 e5cd  ....8.w.Q..R.d..
	0x01d0:  5ab5 56                                  Z.V
17:54:41.515401 ARP, Request who-has radiant tell _gateway, length 28
	0x0000:  0001 0800 0604 0001 fcdd 55fa 6d0b c0a8  ..........U.m...
	0x0010:  0101 0000 0000 0000 c0a8 0169            ...........i
17:54:41.515439 ARP, Reply radiant is-at 68:14:01:02:bd:27 (oui Unknown), length 28
	0x0000:  0001 0800 0604 0002 6814 0102 bd27 c0a8  ........h....'..
	0x0010:  0169 fcdd 55fa 6d0b c0a8 0101            .i..U.m.....
17:54:41.688663 IP ec2-54-186-23-143.us-west-2.compute.amazonaws.com.https > radiant.49062: Flags [.], ack 114, win 58, options [nop,nop,TS val 4110248828 ecr 1605486061], length 0
	0x0000:  4500 0034 441e 4000 9206 944b 36ba 178f  E..4D.@....K6...
	0x0010:  c0a8 0169 01bb bfa6 d3eb 4b3e 5eb7 df06  ...i......K>^...
	0x0020:  8010 003a c1c5 0000 0101 080a f4fd 6b7c  ...:..........k|
	0x0030:  5fb1 c5ed                                _...
17:54:41.688749 IP ec2-54-186-23-143.us-west-2.compute.amazonaws.com.https > radiant.49062: Flags [.], ack 160, win 58, options [nop,nop,TS val 4110248829 ecr 1605486061], length 0
	0x0000:  4500 0034 441f 4000 9206 944a 36ba 178f  E..4D.@....J6...
	0x0010:  c0a8 0169 01bb bfa6 d3eb 4b3e 5eb7 df34  ...i......K>^..4
	0x0020:  8010 003a c196 0000 0101 080a f4fd 6b7d  ...:..........k}
	0x0030:  5fb1 c5ed                                _...
17:54:41.688774 IP ec2-54-186-23-143.us-west-2.compute.amazonaws.com.https > radiant.49062: Flags [.], ack 575, win 58, options [nop,nop,TS val 4110248829 ecr 1605486061], length 0
	0x0000:  4500 0034 4420 4000 9206 9449 36ba 178f  E..4D.@....I6...
	0x0010:  c0a8 0169 01bb bfa6 d3eb 4b3e 5eb7 e0d3  ...i......K>^...
	0x0020:  8010 003a bff7 0000 0101 080a f4fd 6b7d  ...:..........k}
	0x0030:  5fb1 c5ed                                _...
17:54:41.987750 IP ec2-54-186-23-143.us-west-2.compute.amazonaws.com.https > radiant.49062: Flags [P.], seq 1:47, ack 575, win 58, options [nop,nop,TS val 4110249143 ecr 1605486061], length 46
	0x0000:  4500 0062 4421 4000 9206 941a 36ba 178f  E..bD!@.....6...
	0x0010:  c0a8 0169 01bb bfa6 d3eb 4b3e 5eb7 e0d3  ...i......K>^...
	0x0020:  8018 003a 6e8c 0000 0101 080a f4fd 6cb7  ...:n.........l.
	0x0030:  5fb1 c5ed 1703 0300 2900 0000 0000 0000  _.......).......
	0x0040:  c0d5 8d72 5751 9e9d 888d 44f5 3139 95fc  ...rWQ....D.19..
	0x0050:  fc60 9242 bfd8 0370 5def f1a4 9538 1b32  .`.B...p]....8.2
	0x0060:  e21c                                     ..
17:54:42.012783 IP ec2-54-186-23-143.us-west-2.compute.amazonaws.com.https > radiant.49062: Flags [P.], seq 47:623, ack 575, win 58, options [nop,nop,TS val 4110249161 ecr 1605486061], length 576
	0x0000:  4500 0274 4422 4000 9206 9207 36ba 178f  E..tD"@.....6...
	0x0010:  c0a8 0169 01bb bfa6 d3eb 4b6c 5eb7 e0d3  ...i......Kl^...
	0x0020:  8018 003a 7bac 0000 0101 080a f4fd 6cc9  ...:{.........l.
	0x0030:  5fb1 c5ed 1703 0302 3b00 0000 0000 0000  _.......;.......
	0x0040:  c1eb 43bb 755c c06e 225c 68e0 b81f e888  ..C.u\.n"\h.....
	0x0050:  275b 1453 85f5 d3bd 44d1 26c2 7f67 cedd  '[.S....D.&..g..
	0x0060:  5628 b7ad 2d6f 7465 401c 146d 238f 0486  V(..-ote@..m#...
	0x0070:  1d7b 45f0 70e4 5dcb d406 51e7 4f38 3688  .{E.p.]...Q.O86.
	0x0080:  2f90 edd2 5b80 8d08 5967 ebe2 677b 907e  /...[...Yg..g{.~
	0x0090:  8b6c 6969 4acb 13ca 4a87 23ed cab5 9506  .liiJ...J.#.....
	0x00a0:  a3a5 4c44 1b47 06f7 b771 f17f d27e 0080  ..LD.G...q...~..
	0x00b0:  9d47 22e0 e5bf b099 4087 1577 fe75 9c3f  .G".....@..w.u.?
	0x00c0:  fc00 9270 7a82 0769 255c e18c b157 ee25  ...pz..i%\...W.%
	0x00d0:  cd43 84af b239 374c 3bab fe5d df97 82a1  .C...97L;..]....
	0x00e0:  d358 d073 0aab 2a46 2f66 e42d 5cdc 46f3  .X.s..*F/f.-\.F.
	0x00f0:  6e4a 653b ba97 60f1 543a ede5 0fac 4bc9  nJe;..`.T:....K.
	0x0100:  4ab1 7b07 e81b 9de2 1cc4 ca38 ac57 20a6  J.{........8.W..
	0x0110:  fd52 aa5f 7a83 f75e d562 91d9 0593 0d37  .R._z..^.b.....7
	0x0120:  9f09 d29f 884f 967f 5f17 fabc 21c8 59f9  .....O.._...!.Y.
	0x0130:  d2ff 237f d50d 9431 dff3 1186 8230 8428  ..#....1.....0.(
	0x0140:  928c 7e55 694b 803c 9097 3577 4a9a 6954  ..~UiK.<..5wJ.iT
	0x0150:  18b0 f6da 9a37 6964 fe48 4e9c 2a81 74ed  .....7id.HN.*.t.
	0x0160:  2f74 c864 18f5 992d e7f3 079b 529c 63f9  /t.d...-....R.c.
	0x0170:  66d9 2e27 be71 8f5c a4ab 482b e6b8 3a1a  f..'.q.\..H+..:.
	0x0180:  9381 e0b6 a4e8 834d ed93 e743 20ea b45d  .......M...C...]
	0x0190:  fc1a bafe 4c41 619c a014 4be0 84db 4294  ....LAa...K...B.
	0x01a0:  7234 6654 cfd4 4b99 0c57 4406 71d9 5943  r4fT..K..WD.q.YC
	0x01b0:  469d 3de7 3866 3856 0892 6df5 f42f ac8e  F.=.8f8V..m../..
	0x01c0:  6b15 c50d d297 6b3c a45a 3ff7 e614 a38f  k.....k<.Z?.....
	0x01d0:  b6e4 453a cefe 90b3 dd9e ce06 82ce 1e7e  ..E:...........~
	0x01e0:  3726 dc78 4129 1c96 d4cc 9d05 b586 397e  7&.xA)........9~
	0x01f0:  1192 5405 8526 bce0 2939 bd8e 10ba fa25  ..T..&..)9.....%
	0x0200:  3eac e935 ef7f 81a7 ec7f 07e6 a194 b800  >..5............
	0x0210:  a62c df8b 78b5 1978 8e8a 4b60 7423 0b6b  .,..x..x..K`t#.k
	0x0220:  a104 b311 3806 2dda bdac 1b18 068a db12  ....8.-.........
	0x0230:  0d35 4197 00e9 5e23 130c 66b7 4fe2 df17  .5A...^#..f.O...
	0x0240:  205b 7252 0e56 4ae1 8394 1c53 ed1d 2ece  .[rR.VJ....S....
	0x0250:  895d 2ecd f199 b0c2 3550 7cb8 7bf9 6fa0  .]......5P|.{.o.
	0x0260:  67c8 acbc 8287 085b 7e65 2763 cf30 5bb2  g......[~e'c.0[.
	0x0270:  7d53 2469                                }S$i
17:54:42.012883 IP ec2-54-186-23-143.us-west-2.compute.amazonaws.com.https > radiant.49062: Flags [P.], seq 623:661, ack 575, win 58, options [nop,nop,TS val 4110249161 ecr 1605486061], length 38
	0x0000:  4500 005a 4423 4000 9206 9420 36ba 178f  E..ZD#@.....6...
	0x0010:  c0a8 0169 01bb bfa6 d3eb 4dac 5eb7 e0d3  ...i......M.^...
	0x0020:  8018 003a cd75 0000 0101 080a f4fd 6cc9  ...:.u........l.
	0x0030:  5fb1 c5ed 1703 0300 2100 0000 0000 0000  _.......!.......
	0x0040:  c29a 1f02 32dd cae6 374b 03e1 3d36 0066  ....2...7K..=6.f
	0x0050:  3cf6 f88c e74a 6e41 d05d                 <....JnA.]
17:54:42.013116 IP radiant.49062 > ec2-54-186-23-143.us-west-2.compute.amazonaws.com.https: Flags [.], ack 661, win 776, options [nop,nop,TS val 1605486560 ecr 4110249143], length 0
	0x0000:  4500 0034 0255 4000 4006 2815 c0a8 0169  E..4.U@.@.(....i
	0x0010:  36ba 178f bfa6 01bb 5eb7 e0d3 d3eb 4dd2  6.......^.....M.
	0x0020:  8010 0308 b768 0000 0101 080a 5fb1 c7e0  .....h......_...
	0x0030:  f4fd 6cb7                                ..l.
17:54:42.018839 IP radiant.49062 > ec2-54-186-23-143.us-west-2.compute.amazonaws.com.https: Flags [P.], seq 575:617, ack 661, win 776, options [nop,nop,TS val 1605486566 ecr 4110249143], length 42
	0x0000:  4500 005e 0256 4000 4006 27ea c0a8 0169  E..^.V@.@.'....i
	0x0010:  36ba 178f bfa6 01bb 5eb7 e0d3 d3eb 4dd2  6.......^.....M.
	0x0020:  8018 0308 7f58 0000 0101 080a 5fb1 c7e6  .....X......_...
	0x0030:  f4fd 6cb7 1703 0300 2500 0000 0000 0000  ..l.....%.......
	0x0040:  f61b fd66 20c3 e4fb 9d80 6982 df7a 21eb  ...f......i..z!.
	0x0050:  a4da c881 3e04 0a9b 86de 33e1 866e       ....>.....3..n
17:54:42.067899 IP ec2-54-186-23-143.us-west-2.compute.amazonaws.com.https > radiant.49062: Flags [.], ack 617, win 58, options [nop,nop,TS val 4110249221 ecr 1605486566], length 0
	0x0000:  4500 0034 4424 4000 9206 9445 36ba 178f  E..4D$@....E6...
	0x0010:  c0a8 0169 01bb bfa6 d3eb 4dd2 5eb7 e0fd  ...i......M.^...
	0x0020:  8010 003a b9b8 0000 0101 080a f4fd 6d05  ...:..........m.
	0x0030:  5fb1 c7e6                                _...
17:54:42.492928 IP radiant.55207 > _gateway.domain: 54022+ AAAA? smtp.sendgrid.net. (35)
	0x0000:  4500 003f ee0a 0000 4011 08e9 c0a8 0169  E..?....@......i
	0x0010:  c0a8 0101 d7a7 0035 002b b585 d306 0100  .......5.+......
	0x0020:  0001 0000 0000 0000 0473 6d74 7008 7365  .........smtp.se
	0x0030:  6e64 6772 6964 036e 6574 0000 1c00 01    ndgrid.net.....
17:54:42.495145 IP _gateway.domain > radiant.55207: 54022 0/0/0 (35)
	0x0000:  4500 003f 0014 4000 4011 b6df c0a8 0101  E..?..@.@.......
	0x0010:  c0a8 0169 0035 d7a7 002b 3505 d306 8180  ...i.5...+5.....
	0x0020:  0001 0000 0000 0000 0473 6d74 7008 7365  .........smtp.se
	0x0030:  6e64 6772 6964 036e 6574 0000 1c00 01    ndgrid.net.....
17:54:42.495909 IP radiant.49888 > ec2-18-197-194-208.eu-central-1.compute.amazonaws.com.submission: Flags [S], seq 3412132753, win 64240, options [mss 1460,sackOK,TS val 644029174 ecr 0,nop,wscale 7], length 0
	0x0000:  4510 003c f2c1 4000 4006 b043 c0a8 0169  E..<..@.@..C...i
	0x0010:  12c5 c2d0 c2e0 024b cb61 0391 0000 0000  .......K.a......
	0x0020:  a002 faf0 dff0 0000 0204 05b4 0402 080a  ................
	0x0030:  2663 1af6 0000 0000 0103 0307            &c..........
17:54:42.546628 IP ec2-18-197-194-208.eu-central-1.compute.amazonaws.com.submission > radiant.49888: Flags [S.], seq 988496779, ack 3412132754, win 65535, options [mss 1400,sackOK,TS val 34453439 ecr 644029174,nop,wscale 10], length 0
	0x0000:  4500 003c 0000 4000 9206 5115 12c5 c2d0  E..<..@...Q.....
	0x0010:  c0a8 0169 024b c2e0 3aeb 438b cb61 0392  ...i.K..:.C..a..
	0x0020:  a012 ffff a2c6 0000 0204 0578 0402 080a  ...........x....
	0x0030:  020d b7bf 2663 1af6 0103 030a            ....&c......
17:54:42.546776 IP radiant.49888 > ec2-18-197-194-208.eu-central-1.compute.amazonaws.com.submission: Flags [.], ack 1, win 502, options [nop,nop,TS val 644029225 ecr 34453439], length 0
	0x0000:  4510 0034 f2c2 4000 4006 b04a c0a8 0169  E..4..@.@..J...i
	0x0010:  12c5 c2d0 c2e0 024b cb61 0392 3aeb 438c  .......K.a..:.C.
	0x0020:  8010 01f6 cf30 0000 0101 080a 2663 1b29  .....0......&c.)
	0x0030:  020d b7bf                                ....
17:54:42.547082 IP radiant.49888 > ec2-18-197-194-208.eu-central-1.compute.amazonaws.com.submission: Flags [P.], seq 1:37, ack 1, win 502, options [nop,nop,TS val 644029225 ecr 34453439], length 36
	0x0000:  4510 0058 f2c3 4000 4006 b025 c0a8 0169  E..X..@.@..%...i
	0x0010:  12c5 c2d0 c2e0 024b cb61 0392 3aeb 438c  .......K.a..:.C.
	0x0020:  8018 01f6 57ba 0000 0101 080a 2663 1b29  ....W.......&c.)
	0x0030:  020d b7bf 4548 4c4f 2069 736d 7470 6430  ....EHLO.ismtpd0
	0x0040:  3030 3170 316c 6173 312e 7365 6e64 6772  001p1las1.sendgr
	0x0050:  6964 2e6e 6574 0d0a                      id.net..
17:54:42.628304 IP ec2-18-197-194-208.eu-central-1.compute.amazonaws.com.submission > radiant.49888: Flags [.], ack 37, win 64, options [nop,nop,TS val 34453519 ecr 644029225], length 0
	0x0000:  4500 0034 7f0e 4000 9206 d20e 12c5 c2d0  E..4..@.........
	0x0010:  c0a8 0169 024b c2e0 3aeb 438c cb61 03b6  ...i.K..:.C..a..
	0x0020:  8010 0040 d072 0000 0101 080a 020d b80f  ...@.r..........
	0x0030:  2663 1b29                                &c.)
17:54:42.831766 IP ec2-18-197-194-208.eu-central-1.compute.amazonaws.com.submission > radiant.49888: Flags [P.], seq 1:48, ack 37, win 64, options [nop,nop,TS val 34453725 ecr 644029225], length 47
	0x0000:  4500 0063 7f0f 4000 9206 d1de 12c5 c2d0  E..c..@.........
	0x0010:  c0a8 0169 024b c2e0 3aeb 438c cb61 03b6  ...i.K..:.C..a..
	0x0020:  8018 0040 70b2 0000 0101 080a 020d b8dd  ...@p...........
	0x0030:  2663 1b29 3232 3020 5347 2045 534d 5450  &c.)220.SG.ESMTP
	0x0040:  2073 6572 7669 6365 2072 6561 6479 2061  .service.ready.a
	0x0050:  7420 6765 6f70 6f64 2d69 736d 7470 642d  t.geopod-ismtpd-
	0x0060:  390d 0a                                  9..
17:54:42.831870 IP radiant.49888 > ec2-18-197-194-208.eu-central-1.compute.amazonaws.com.submission: Flags [.], ack 48, win 502, options [nop,nop,TS val 644029510 ecr 34453725], length 0
	0x0000:  4510 0034 f2c4 4000 4006 b048 c0a8 0169  E..4..@.@..H...i
	0x0010:  12c5 c2d0 c2e0 024b cb61 03b6 3aeb 43bb  .......K.a..:.C.
	0x0020:  8010 01f6 cca2 0000 0101 080a 2663 1c46  ............&c.F
	0x0030:  020d b8dd                                ....
17:54:42.835270 IP ec2-18-197-194-208.eu-central-1.compute.amazonaws.com.submission > radiant.49888: Flags [P.], seq 48:178, ack 37, win 64, options [nop,nop,TS val 34453725 ecr 644029225], length 130
	0x0000:  4500 00b6 7f10 4000 9206 d18a 12c5 c2d0  E.....@.........
	0x0010:  c0a8 0169 024b c2e0 3aeb 43bb cb61 03b6  ...i.K..:.C..a..
	0x0020:  8018 0040 e48b 0000 0101 080a 020d b8dd  ...@............
	0x0030:  2663 1b29 3235 302d 736d 7470 2e73 656e  &c.)250-smtp.sen
	0x0040:  6467 7269 642e 6e65 740d 0a32 3530 2d38  dgrid.net..250-8
	0x0050:  4249 544d 494d 450d 0a32 3530 2d50 4950  BITMIME..250-PIP
	0x0060:  454c 494e 494e 470d 0a32 3530 2d53 495a  ELINING..250-SIZ
	0x0070:  4520 3331 3435 3732 3830 0d0a 3235 302d  E.31457280..250-
	0x0080:  5354 4152 5454 4c53 0d0a 3235 302d 4155  STARTTLS..250-AU
	0x0090:  5448 2050 4c41 494e 204c 4f47 494e 0d0a  TH.PLAIN.LOGIN..
	0x00a0:  3235 3020 4155 5448 3d50 4c41 494e 204c  250.AUTH=PLAIN.L
	0x00b0:  4f47 494e 0d0a                           OGIN..
17:54:42.835375 IP radiant.49888 > ec2-18-197-194-208.eu-central-1.compute.amazonaws.com.submission: Flags [.], ack 178, win 501, options [nop,nop,TS val 644029514 ecr 34453725], length 0
	0x0000:  4510 0034 f2c5 4000 4006 b047 c0a8 0169  E..4..@.@..G...i
	0x0010:  12c5 c2d0 c2e0 024b cb61 03b6 3aeb 443d  .......K.a..:.D=
	0x0020:  8010 01f5 cc1d 0000 0101 080a 2663 1c4a  ............&c.J
	0x0030:  020d b8dd                                ....
17:54:44.071715 IP radiant.49888 > ec2-18-197-194-208.eu-central-1.compute.amazonaws.com.submission: Flags [P.], seq 37:49, ack 178, win 501, options [nop,nop,TS val 644030750 ecr 34453725], length 12
	0x0000:  4510 0040 f2c6 4000 4006 b03a c0a8 0169  E..@..@.@..:...i
	0x0010:  12c5 c2d0 c2e0 024b cb61 03b6 3aeb 443d  .......K.a..:.D=
	0x0020:  8018 01f5 eb0b 0000 0101 080a 2663 211e  ............&c!.
	0x0030:  020d b8dd 6175 7468 206c 6f67 696e 0d0a  ....auth.login..
17:54:44.127950 IP ec2-18-197-194-208.eu-central-1.compute.amazonaws.com.submission > radiant.49888: Flags [.], ack 49, win 64, options [nop,nop,TS val 34455019 ecr 644030750], length 0
	0x0000:  4500 0034 7f11 4000 9206 d20b 12c5 c2d0  E..4..@.........
	0x0010:  c0a8 0169 024b c2e0 3aeb 443d cb61 03c2  ...i.K..:.D=.a..
	0x0020:  8010 0040 c3e4 0000 0101 080a 020d bdeb  ...@............
	0x0030:  2663 211e                                &c!.
17:54:44.267332 IP ec2-18-197-194-208.eu-central-1.compute.amazonaws.com.submission > radiant.49888: Flags [P.], seq 178:196, ack 49, win 64, options [nop,nop,TS val 34455161 ecr 644030750], length 18
	0x0000:  4500 0046 7f12 4000 9206 d1f8 12c5 c2d0  E..F..@.........
	0x0010:  c0a8 0169 024b c2e0 3aeb 443d cb61 03c2  ...i.K..:.D=.a..
	0x0020:  8018 0040 59b7 0000 0101 080a 020d be79  ...@Y..........y
	0x0030:  2663 211e 3333 3420 5658 4e6c 636d 3568  &c!.334.VXNlcm5h
	0x0040:  6257 5536 0d0a                           bWU6..
17:54:44.267435 IP radiant.49888 > ec2-18-197-194-208.eu-central-1.compute.amazonaws.com.submission: Flags [.], ack 196, win 501, options [nop,nop,TS val 644030946 ecr 34455161], length 0
	0x0000:  4510 0034 f2c7 4000 4006 b045 c0a8 0169  E..4..@.@..E...i
	0x0010:  12c5 c2d0 c2e0 024b cb61 03c2 3aeb 444f  .......K.a..:.DO
	0x0020:  8010 01f5 c0cb 0000 0101 080a 2663 21e2  ............&c!.
	0x0030:  020d be79                                ...y
17:54:46.074525 IP radiant.49888 > ec2-18-197-194-208.eu-central-1.compute.amazonaws.com.submission: Flags [P.], seq 49:63, ack 196, win 501, options [nop,nop,TS val 644032753 ecr 34455161], length 14
	0x0000:  4510 0042 f2c8 4000 4006 b036 c0a8 0169  E..B..@.@..6...i
	0x0010:  12c5 c2d0 c2e0 024b cb61 03c2 3aeb 444f  .......K.a..:.DO
	0x0020:  8018 01f5 7789 0000 0101 080a 2663 28f1  ....w.......&c(.
	0x0030:  020d be79 6258 6c73 6232 6470 6267 3d3d  ...ybXlsb2dpbg==
	0x0040:  0d0a                                     ..
17:54:46.233202 IP ec2-18-197-194-208.eu-central-1.compute.amazonaws.com.submission > radiant.49888: Flags [.], ack 63, win 64, options [nop,nop,TS val 34457018 ecr 644032753], length 0
	0x0000:  4500 0034 7f13 4000 9206 d209 12c5 c2d0  E..4..@.........
	0x0010:  c0a8 0169 024b c2e0 3aeb 444f cb61 03d0  ...i.K..:.DO.a..
	0x0020:  8010 0040 b422 0000 0101 080a 020d c5ba  ...@."..........
	0x0030:  2663 28f1                                &c(.
17:54:46.335393 IP ec2-18-197-194-208.eu-central-1.compute.amazonaws.com.submission > radiant.49888: Flags [P.], seq 196:214, ack 63, win 64, options [nop,nop,TS val 34457161 ecr 644032753], length 18
	0x0000:  4500 0046 7f14 4000 9206 d1f6 12c5 c2d0  E..F..@.........
	0x0010:  c0a8 0169 024b c2e0 3aeb 444f cb61 03d0  ...i.K..:.DO.a..
	0x0020:  8018 0040 270d 0000 0101 080a 020d c649  ...@'..........I
	0x0030:  2663 28f1 3333 3420 5547 467a 6333 6476  &c(.334.UGFzc3dv
	0x0040:  636d 5136 0d0a                           cmQ6..
17:54:46.335495 IP radiant.49888 > ec2-18-197-194-208.eu-central-1.compute.amazonaws.com.submission: Flags [.], ack 214, win 501, options [nop,nop,TS val 644033014 ecr 34457161], length 0
	0x0000:  4510 0034 f2c9 4000 4006 b043 c0a8 0169  E..4..@.@..C...i
	0x0010:  12c5 c2d0 c2e0 024b cb61 03d0 3aeb 4461  .......K.a..:.Da
	0x0020:  8010 01f5 b0c7 0000 0101 080a 2663 29f6  ............&c).
	0x0030:  020d c649                                ...I
17:54:47.034378 IP radiant.50808 > 151.101.129.69.https: Flags [.], ack 1619841214, win 4555, options [nop,nop,TS val 1676468737 ecr 3283524011], length 0
	0x0000:  4500 0034 d912 4000 4006 86f5 c0a8 0169  E..4..@.@......i
	0x0010:  9765 8145 c678 01bb cbd8 b139 608c d0be  .e.E.x.....9`...
	0x0020:  8010 11cb 7054 0000 0101 080a 63ec e201  ....pT......c...
	0x0030:  c3b6 99ab                                ....
17:54:47.034491 IP radiant.59738 > 104.18.131.236.https: Flags [.], ack 638308504, win 612, options [nop,nop,TS val 1430863519 ecr 3538416040], length 0
	0x0000:  4500 0034 2df5 4000 4006 5ebf c0a8 0169  E..4-.@.@.^....i
	0x0010:  6812 83ec e95a 01bb cbdd 6373 260b d098  h....Z....cs&...
	0x0020:  8010 0264 5cc5 0000 0101 080a 5549 3e9f  ...d\.......UI>.
	0x0030:  d2e7 f1a8                                ....
17:54:47.034564 IP radiant.42280 > 104.18.32.137.https: Flags [.], ack 3392921561, win 501, options [nop,nop,TS val 620765151 ecr 3371119137], length 0
	0x0000:  4500 0034 b32d 4000 4006 3cea c0a8 0169  E..4.-@.@.<....i
	0x0010:  6812 2089 a528 01bb 838e 11db ca3b dfd9  h....(.......;..
	0x0020:  8010 01f5 03c9 0000 0101 080a 2500 1fdf  ............%...
	0x0030:  c8ef 3221                                ..2!
17:54:47.034635 IP radiant.59724 > 104.18.131.236.https: Flags [.], ack 4096295527, win 1646, options [nop,nop,TS val 1430863519 ecr 3538416040], length 0
	0x0000:  4500 0034 8e5a 4000 4006 fe59 c0a8 0169  E..4.Z@.@..Y...i
	0x0010:  6812 83ec e94c 01bb 695c 777d f428 8267  h....L..i\w}.(.g
	0x0020:  8010 066e 2754 0000 0101 080a 5549 3e9f  ...n'T......UI>.
	0x0030:  d2e7 f1a8                                ....
17:54:47.154714 IP 151.101.129.69.https > radiant.50808: Flags [.], ack 1, win 68, options [nop,nop,TS val 3283570879 ecr 1676058642], length 0
	0x0000:  4500 0034 220e 4000 9206 ebf9 9765 8145  E..4".@......e.E
	0x0010:  c0a8 0169 01bb c678 608c d0be cbd8 b13a  ...i...x`......:
	0x0020:  8010 0044 0cbb 0000 0101 080a c3b7 50bf  ...D..........P.
	0x0030:  63e6 a012                                c...
17:54:47.154792 IP 104.18.131.236.https > radiant.59738: Flags [.], ack 1, win 67, options [nop,nop,TS val 3538462915 ecr 1430452827], length 0
	0x0000:  4500 0034 59b7 4000 9206 e0fc 6812 83ec  E..4Y.@.....h...
	0x0010:  c0a8 0169 01bb e95a 260b d098 cbdd 6374  ...i...Z&.....ct
	0x0020:  8010 0043 ec13 0000 0101 080a d2e8 a8c3  ...C............
	0x0030:  5542 fa5b                                UB.[
17:54:47.154823 IP 104.18.32.137.https > radiant.42280: Flags [.], ack 1, win 85, options [nop,nop,TS val 3371166012 ecr 620355449], length 0
	0x0000:  4500 0034 c7b5 4000 9206 d661 6812 2089  E..4..@....ah...
	0x0010:  c0a8 0169 01bb a528 ca3b dfd9 838e 11dc  ...i...(.;......
	0x0020:  8010 0055 8eb8 0000 0101 080a c8ef e93c  ...U...........<
	0x0030:  24f9 df79                                $..y
17:54:47.154852 IP 104.18.131.236.https > radiant.59724: Flags [.], ack 1, win 67, options [nop,nop,TS val 3538462915 ecr 1430452414], length 0
	0x0000:  4500 0034 fddb 4000 9206 3cd8 6812 83ec  E..4..@...<.h...
	0x0010:  c0a8 0169 01bb e94c f428 8267 695c 777e  ...i...L.(.gi\w~
	0x0020:  8010 0043 bc49 0000 0101 080a d2e8 a8c3  ...C.I..........
	0x0030:  5542 f8be                                UB..
17:54:48.078126 IP radiant.49888 > ec2-18-197-194-208.eu-central-1.compute.amazonaws.com.submission: Flags [P.], seq 63:85, ack 214, win 501, options [nop,nop,TS val 644034756 ecr 34457161], length 22
	0x0000:  4510 004a f2ca 4000 4006 b02c c0a8 0169  E..J..@.@..,...i
	0x0010:  12c5 c2d0 c2e0 024b cb61 03d0 3aeb 4461  .......K.a..:.Da
	0x0020:  8018 01f5 0c4e 0000 0101 080a 2663 30c4  .....N......&c0.
	0x0030:  020d c649 6258 6c77 5958 4e7a 6432 3979  ...IbXlwYXNzd29y
	0x0040:  5a44 6b34 4f54 6768 0d0a                 ZDk4OTgh..
17:54:48.128042 IP ec2-18-197-194-208.eu-central-1.compute.amazonaws.com.submission > radiant.49888: Flags [.], ack 85, win 64, options [nop,nop,TS val 34459018 ecr 644034756], length 0
	0x0000:  4500 0034 7f15 4000 9206 d207 12c5 c2d0  E..4..@.........
	0x0010:  c0a8 0169 024b c2e0 3aeb 4461 cb61 03e6  ...i.K..:.Da.a..
	0x0020:  8010 0040 a457 0000 0101 080a 020d cd8a  ...@.W..........
	0x0030:  2663 30c4                                &c0.
17:54:48.381348 IP ec2-18-197-194-208.eu-central-1.compute.amazonaws.com.submission > radiant.49888: Flags [P.], seq 214:266, ack 85, win 64, options [nop,nop,TS val 34459272 ecr 644034756], length 52
	0x0000:  4500 0068 7f16 4000 9206 d1d2 12c5 c2d0  E..h..@.........
	0x0010:  c0a8 0169 024b c2e0 3aeb 4461 cb61 03e6  ...i.K..:.Da.a..
	0x0020:  8018 0040 b71b 0000 0101 080a 020d ce88  ...@............
	0x0030:  2663 30c4 3533 3520 4175 7468 656e 7469  &c0.535.Authenti
	0x0040:  6361 7469 6f6e 2066 6169 6c65 643a 2042  cation.failed:.B
	0x0050:  6164 2075 7365 726e 616d 6520 2f20 7061  ad.username./.pa
	0x0060:  7373 776f 7264 0d0a                      ssword..
17:54:48.381490 IP radiant.49888 > ec2-18-197-194-208.eu-central-1.compute.amazonaws.com.submission: Flags [.], ack 266, win 501, options [nop,nop,TS val 644035060 ecr 34459272], length 0
	0x0000:  4510 0034 f2cb 4000 4006 b041 c0a8 0169  E..4..@.@..A...i
	0x0010:  12c5 c2d0 c2e0 024b cb61 03e6 3aeb 4495  .......K.a..:.D.
	0x0020:  8010 01f5 a040 0000 0101 080a 2663 31f4  .....@......&c1.
	0x0030:  020d ce88                                ....
17:54:48.381573 IP ec2-18-197-194-208.eu-central-1.compute.amazonaws.com.submission > radiant.49888: Flags [F.], seq 266, ack 85, win 64, options [nop,nop,TS val 34459272 ecr 644034756], length 0
	0x0000:  4500 0034 7f17 4000 9206 d205 12c5 c2d0  E..4..@.........
	0x0010:  c0a8 0169 024b c2e0 3aeb 4495 cb61 03e6  ...i.K..:.D..a..
	0x0020:  8011 0040 a324 0000 0101 080a 020d ce88  ...@.$..........
	0x0030:  2663 30c4                                &c0.
17:54:48.381684 IP radiant.49888 > ec2-18-197-194-208.eu-central-1.compute.amazonaws.com.submission: Flags [F.], seq 85, ack 267, win 501, options [nop,nop,TS val 644035060 ecr 34459272], length 0
	0x0000:  4510 0034 f2cc 4000 4006 b040 c0a8 0169  E..4..@.@..@...i
	0x0010:  12c5 c2d0 c2e0 024b cb61 03e6 3aeb 4496  .......K.a..:.D.
	0x0020:  8011 01f5 a03e 0000 0101 080a 2663 31f4  .....>......&c1.
	0x0030:  020d ce88                                ....
17:54:48.437730 IP ec2-18-197-194-208.eu-central-1.compute.amazonaws.com.submission > radiant.49888: Flags [.], ack 86, win 64, options [nop,nop,TS val 34459328 ecr 644035060], length 0
	0x0000:  4500 0034 7f18 4000 9206 d204 12c5 c2d0  E..4..@.........
	0x0010:  c0a8 0169 024b c2e0 3aeb 4496 cb61 03e7  ...i.K..:.D..a..
	0x0020:  8010 0040 a1bb 0000 0101 080a 020d cec0  ...@............
	0x0030:  2663 31f4                                &c1.
