18:40:49.894388 68:14:01:02:bd:27 > fc:dd:55:fa:6d:0b, ethertype IPv4 (0x0800), length 66: (tos 0x0, ttl 64, id 5132, offset 0, flags [DF], proto TCP (6), length 52)$
    192.168.1.105.54168 > 185.199.110.133.443: Flags [.], cksum 0xbd4f (correct), seq 3076686636, ack 880333257, win 501, options [nop,nop,TS val 2222061834 ecr 4072621753], length 0$
	0x0000:  4500 0034 140c 4000 4006 3c5a c0a8 0169  E..4..@.@.<Z...i$
	0x0010:  b9c7 6e85 d398 01bb b762 832c 3478 d1c9  ..n......b.,4x..$
	0x0020:  8010 01f5 bd4f 0000 0101 080a 8471 f90a  .....O.......q..$
	0x0030:  f2bf 46b9                                ..F.$
18:40:50.175503 fc:dd:55:fa:6d:0b > 68:14:01:02:bd:27, ethertype IPv4 (0x0800), length 66: (tos 0x0, ttl 146, id 39821, offset 0, flags [DF], proto TCP (6), length 52)$
    185.199.110.133.443 > 192.168.1.105.54168: Flags [.], cksum 0x5f3b (correct), seq 1, ack 1, win 67, options [nop,nop,TS val 4072666972 ecr 2221516852], length 0$
	0x0000:  4500 0034 9b8d 4000 9206 62d8 b9c7 6e85  E..4..@...b...n.$
	0x0010:  c0a8 0169 01bb d398 3478 d1c9 b762 832d  ...i....4x...b.-$
	0x0020:  8010 0043 5f3b 0000 0101 080a f2bf f75c  ...C_;.........\$
	0x0030:  8469 a834                                .i.4$
18:40:51.938469 68:14:01:02:bd:27 > fc:dd:55:fa:6d:0b, ethertype IPv4 (0x0800), length 66: (tos 0x0, ttl 64, id 32180, offset 0, flags [DF], proto TCP (6), length 52)$
    192.168.1.105.58056 > 18.161.111.112.443: Flags [.], cksum 0x9a6b (correct), seq 2521820785, ack 1321867565, win 501, options [nop,nop,TS val 2097905637 ecr 4033992602], length 0$
	0x0000:  4500 0034 7db4 4000 4006 78ed c0a8 0169  E..4}.@.@.x....i$
	0x0010:  12a1 6f70 e2c8 01bb 964f ee71 4eca 192d  ..op.....O.qN..-$
	0x0020:  8010 01f5 9a6b 0000 0101 080a 7d0b 7fe5  .....k......}...$
	0x0030:  f071 d79a                                .q..$
18:40:52.018029 fc:dd:55:fa:6d:0b > 68:14:01:02:bd:27, ethertype IPv4 (0x0800), length 66: (tos 0x0, ttl 146, id 59204, offset 0, flags [DF], proto TCP (6), length 52)$
    18.161.111.112.443 > 192.168.1.105.58056: Flags [.], cksum 0x4da1 (correct), seq 1, ack 1, win 67, options [nop,nop,TS val 4034037757 ecr 2097815038], length 0$
	0x0000:  4500 0034 e744 4000 9206 bd5c 12a1 6f70  E..4.D@....\..op$
	0x0010:  c0a8 0169 01bb e2c8 4eca 192d 964f ee72  ...i....N..-.O.r$
	0x0020:  8010 0043 4da1 0000 0101 080a f072 87fd  ...CM........r..$
	0x0030:  7d0a 1dfe                                }...$
18:40:54.003359 68:14:01:02:bd:27 > fc:dd:55:fa:6d:0b, ethertype IPv4 (0x0800), length 77: (tos 0x0, ttl 64, id 26232, offset 0, flags [none], proto UDP (17), length 63)$
    192.168.1.105.47692 > 192.168.1.1.53: [udp sum ok] 14559+ A? smtp.sendgrid.net. (35)$
	0x0000:  4500 003f 6678 0000 4011 907b c0a8 0169  E..?fx..@..{...i$
	0x0010:  c0a8 0101 ba4c 0035 002b 8808 38df 0100  .....L.5.+..8...$
	0x0020:  0001 0000 0000 0000 0473 6d74 7008 7365  .........smtp.se$
	0x0030:  6e64 6772 6964 036e 6574 0000 0100 01    ndgrid.net.....$
18:40:54.003689 68:14:01:02:bd:27 > fc:dd:55:fa:6d:0b, ethertype IPv4 (0x0800), length 77: (tos 0x0, ttl 64, id 54212, offset 0, flags [none], proto UDP (17), length 63)$
    192.168.1.105.48662 > 192.168.1.1.53: [udp sum ok] 30423+ AAAA? smtp.sendgrid.net. (35)$
	0x0000:  4500 003f d3c4 0000 4011 232f c0a8 0169  E..?....@.#/...i$
	0x0010:  c0a8 0101 be16 0035 002b 2b46 76d7 0100  .......5.++Fv...$
	0x0020:  0001 0000 0000 0000 0473 6d74 7008 7365  .........smtp.se$
	0x0030:  6e64 6772 6964 036e 6574 0000 1c00 01    ndgrid.net.....$
18:40:54.271002 fc:dd:55:fa:6d:0b > 68:14:01:02:bd:27, ethertype IPv4 (0x0800), length 141: (tos 0x0, ttl 64, id 27837, offset 0, flags [DF], proto UDP (17), length 127)$
    192.168.1.1.53 > 192.168.1.105.47692: [udp sum ok] 14559 q: A? smtp.sendgrid.net. 4/0/0 smtp.sendgrid.net. A 52.57.139.126, smtp.sendgrid.net. A 18.197.194.208, smtp.sendgrid.net. A 108.128.229.184, smtp.sendgrid.net. A 54.228.39.88 (99)$
	0x0000:  4500 007f 6cbd 4000 4011 49f6 c0a8 0101  E...l.@.@.I.....$
	0x0010:  c0a8 0169 0035 ba4c 006b 90bc 38df 8180  ...i.5.L.k..8...$
	0x0020:  0001 0004 0000 0000 0473 6d74 7008 7365  .........smtp.se$
	0x0030:  6e64 6772 6964 036e 6574 0000 0100 01c0  ndgrid.net......$
	0x0040:  0c00 0100 0100 0000 5a00 0434 398b 7ec0  ........Z..49.~.$
	0x0050:  0c00 0100 0100 0000 5a00 0412 c5c2 d0c0  ........Z.......$
	0x0060:  0c00 0100 0100 0000 5a00 046c 80e5 b8c0  ........Z..l....$
	0x0070:  0c00 0100 0100 0000 5a00 0436 e427 58    ........Z..6.'X$
18:40:54.271112 fc:dd:55:fa:6d:0b > 68:14:01:02:bd:27, ethertype IPv4 (0x0800), length 137: (tos 0x0, ttl 64, id 27838, offset 0, flags [DF], proto UDP (17), length 123)$
    192.168.1.1.53 > 192.168.1.105.48662: [udp sum ok] 30423 q: AAAA? smtp.sendgrid.net. 0/1/0 ns: sendgrid.net. SOA ns10.dnsmadeeasy.com. dns.dnsmadeeasy.com. 2011258596 14400 600 1728000 180 (95)$
	0x0000:  4500 007b 6cbe 4000 4011 49f9 c0a8 0101  E..{l.@.@.I.....$
	0x0010:  c0a8 0169 0035 be16 0067 3df8 76d7 8180  ...i.5...g=.v...$
	0x0020:  0001 0000 0001 0000 0473 6d74 7008 7365  .........smtp.se$
	0x0030:  6e64 6772 6964 036e 6574 0000 1c00 01c0  ndgrid.net......$
	0x0040:  1100 0600 0100 0000 b400 3004 6e73 3130  ..........0.ns10$
	0x0050:  0b64 6e73 6d61 6465 6561 7379 0363 6f6d  .dnsmadeeasy.com$
	0x0060:  0003 646e 73c0 3477 e15e e400 0038 4000  ..dns.4w.^...8@.$
	0x0070:  0002 5800 1a5e 0000 0000 b4              ..X..^.....$
18:40:54.272863 68:14:01:02:bd:27 > fc:dd:55:fa:6d:0b, ethertype IPv4 (0x0800), length 74: (tos 0x10, ttl 64, id 28535, offset 0, flags [DF], proto TCP (6), length 60)$
    192.168.1.105.55912 > 52.57.139.126.587: Flags [S], cksum 0xeab3 (correct), seq 2434717044, win 64240, options [mss 1460,sackOK,TS val 2922704662 ecr 0,nop,wscale 7], length 0$
	0x0000:  4510 003c 6f77 4000 4006 496c c0a8 0169  E..<ow@.@.Il...i$
	0x0010:  3439 8b7e da68 024b 911e d574 0000 0000  49.~.h.K...t....$
	0x0020:  a002 faf0 eab3 0000 0204 05b4 0402 080a  ................$
	0x0030:  ae34 ef16 0000 0000 0103 0307            .4..........$
18:40:54.374325 fc:dd:55:fa:6d:0b > 68:14:01:02:bd:27, ethertype IPv4 (0x0800), length 74: (tos 0x0, ttl 146, id 0, offset 0, flags [DF], proto TCP (6), length 60)$
    52.57.139.126.587 > 192.168.1.105.55912: Flags [S.], cksum 0xc36d (correct), seq 2228882963, ack 2434717045, win 65535, options [mss 1400,sackOK,TS val 2568943186 ecr 2922704662,nop,wscale 10], length 0$
	0x0000:  4500 003c 0000 4000 9206 66f3 3439 8b7e  E..<..@...f.49.~$
	0x0010:  c0a8 0169 024b da68 84da 0e13 911e d575  ...i.K.h.......u$
	0x0020:  a012 ffff c36d 0000 0204 0578 0402 080a  .....m.....x....$
	0x0030:  991e f652 ae34 ef16 0103 030a            ...R.4......$
18:40:54.374490 68:14:01:02:bd:27 > fc:dd:55:fa:6d:0b, ethertype IPv4 (0x0800), length 66: (tos 0x10, ttl 64, id 28536, offset 0, flags [DF], proto TCP (6), length 52)$
    192.168.1.105.55912 > 52.57.139.126.587: Flags [.], cksum 0xefa4 (correct), seq 1, ack 1, win 502, options [nop,nop,TS val 2922704764 ecr 2568943186], length 0$
	0x0000:  4510 0034 6f78 4000 4006 4973 c0a8 0169  E..4ox@.@.Is...i$
	0x0010:  3439 8b7e da68 024b 911e d575 84da 0e14  49.~.h.K...u....$
	0x0020:  8010 01f6 efa4 0000 0101 080a ae34 ef7c  .............4.|$
	0x0030:  991e f652                                ...R$
18:40:54.374856 68:14:01:02:bd:27 > fc:dd:55:fa:6d:0b, ethertype IPv4 (0x0800), length 102: (tos 0x10, ttl 64, id 28537, offset 0, flags [DF], proto TCP (6), length 88)$
    192.168.1.105.55912 > 52.57.139.126.587: Flags [P.], cksum 0x782e (correct), seq 1:37, ack 1, win 502, options [nop,nop,TS val 2922704764 ecr 2568943186], length 36$
	0x0000:  4510 0058 6f79 4000 4006 494e c0a8 0169  E..Xoy@.@.IN...i$
	0x0010:  3439 8b7e da68 024b 911e d575 84da 0e14  49.~.h.K...u....$
	0x0020:  8018 01f6 782e 0000 0101 080a ae34 ef7c  ....x........4.|$
	0x0030:  991e f652 4548 4c4f 2069 736d 7470 6430  ...REHLO.ismtpd0$
	0x0040:  3030 3170 316c 6173 312e 7365 6e64 6772  001p1las1.sendgr$
	0x0050:  6964 2e6e 6574 0d0a                      id.net..$
18:40:54.462349 fc:dd:55:fa:6d:0b > 68:14:01:02:bd:27, ethertype IPv4 (0x0800), length 66: (tos 0x0, ttl 146, id 34331, offset 0, flags [DF], proto TCP (6), length 52)$
    52.57.139.126.587 > 192.168.1.105.55912: Flags [.], cksum 0xf0aa (correct), seq 1, ack 37, win 64, options [nop,nop,TS val 2568943326 ecr 2922704764], length 0$
	0x0000:  4500 0034 861b 4000 9206 e0df 3439 8b7e  E..4..@.....49.~$
	0x0010:  c0a8 0169 024b da68 84da 0e14 911e d599  ...i.K.h........$
	0x0020:  8010 0040 f0aa 0000 0101 080a 991e f6de  ...@............$
	0x0030:  ae34 ef7c                                .4.|$
18:40:54.606572 fc:dd:55:fa:6d:0b > 68:14:01:02:bd:27, ethertype IPv4 (0x0800), length 113: (tos 0x0, ttl 146, id 34332, offset 0, flags [DF], proto TCP (6), length 99)$
    52.57.139.126.587 > 192.168.1.105.55912: Flags [P.], cksum 0x9124 (correct), seq 1:48, ack 37, win 64, options [nop,nop,TS val 2568943474 ecr 2922704764], length 47$
	0x0000:  4500 0063 861c 4000 9206 e0af 3439 8b7e  E..c..@.....49.~$
	0x0010:  c0a8 0169 024b da68 84da 0e14 911e d599  ...i.K.h........$
	0x0020:  8018 0040 9124 0000 0101 080a 991e f772  ...@.$.........r$
	0x0030:  ae34 ef7c 3232 3020 5347 2045 534d 5450  .4.|220.SG.ESMTP$
	0x0040:  2073 6572 7669 6365 2072 6561 6479 2061  .service.ready.a$
	0x0050:  7420 6765 6f70 6f64 2d69 736d 7470 642d  t.geopod-ismtpd-$
	0x0060:  390d 0a                                  9..$
18:40:54.606675 68:14:01:02:bd:27 > fc:dd:55:fa:6d:0b, ethertype IPv4 (0x0800), length 66: (tos 0x10, ttl 64, id 28538, offset 0, flags [DF], proto TCP (6), length 52)$
    192.168.1.105.55912 > 52.57.139.126.587: Flags [.], cksum 0xed49 (correct), seq 37, ack 48, win 502, options [nop,nop,TS val 2922704996 ecr 2568943474], length 0$
	0x0000:  4510 0034 6f7a 4000 4006 4971 c0a8 0169  E..4oz@.@.Iq...i$
	0x0010:  3439 8b7e da68 024b 911e d599 84da 0e43  49.~.h.K.......C$
	0x0020:  8010 01f6 ed49 0000 0101 080a ae34 f064  .....I.......4.d$
	0x0030:  991e f772                                ...r$
18:40:54.606781 fc:dd:55:fa:6d:0b > 68:14:01:02:bd:27, ethertype IPv4 (0x0800), length 196: (tos 0x0, ttl 146, id 34333, offset 0, flags [DF], proto TCP (6), length 182)$
    52.57.139.126.587 > 192.168.1.105.55912: Flags [P.], cksum 0x04fe (correct), seq 48:178, ack 37, win 64, options [nop,nop,TS val 2568943474 ecr 2922704764], length 130$
	0x0000:  4500 00b6 861d 4000 9206 e05b 3439 8b7e  E.....@....[49.~$
	0x0010:  c0a8 0169 024b da68 84da 0e43 911e d599  ...i.K.h...C....$
	0x0020:  8018 0040 04fe 0000 0101 080a 991e f772  ...@...........r$
	0x0030:  ae34 ef7c 3235 302d 736d 7470 2e73 656e  .4.|250-smtp.sen$
	0x0040:  6467 7269 642e 6e65 740d 0a32 3530 2d38  dgrid.net..250-8$
	0x0050:  4249 544d 494d 450d 0a32 3530 2d50 4950  BITMIME..250-PIP$
	0x0060:  454c 494e 494e 470d 0a32 3530 2d53 495a  ELINING..250-SIZ$
	0x0070:  4520 3331 3435 3732 3830 0d0a 3235 302d  E.31457280..250-$
	0x0080:  5354 4152 5454 4c53 0d0a 3235 302d 4155  STARTTLS..250-AU$
	0x0090:  5448 2050 4c41 494e 204c 4f47 494e 0d0a  TH.PLAIN.LOGIN..$
	0x00a0:  3235 3020 4155 5448 3d50 4c41 494e 204c  250.AUTH=PLAIN.L$
	0x00b0:  4f47 494e 0d0a                           OGIN..$
18:40:54.606827 68:14:01:02:bd:27 > fc:dd:55:fa:6d:0b, ethertype IPv4 (0x0800), length 66: (tos 0x10, ttl 64, id 28539, offset 0, flags [DF], proto TCP (6), length 52)$
    192.168.1.105.55912 > 52.57.139.126.587: Flags [.], cksum 0xecc8 (correct), seq 37, ack 178, win 501, options [nop,nop,TS val 2922704996 ecr 2568943474], length 0$
	0x0000:  4510 0034 6f7b 4000 4006 4970 c0a8 0169  E..4o{@.@.Ip...i$
	0x0010:  3439 8b7e da68 024b 911e d599 84da 0ec5  49.~.h.K........$
	0x0020:  8010 01f5 ecc8 0000 0101 080a ae34 f064  .............4.d$
	0x0030:  991e f772                                ...r$
18:40:55.572953 68:14:01:02:bd:27 > fc:dd:55:fa:6d:0b, ethertype IPv4 (0x0800), length 78: (tos 0x10, ttl 64, id 28540, offset 0, flags [DF], proto TCP (6), length 64)$
    192.168.1.105.55912 > 52.57.139.126.587: Flags [P.], cksum 0x0cc5 (correct), seq 37:49, ack 178, win 501, options [nop,nop,TS val 2922705962 ecr 2568943474], length 12$
	0x0000:  4510 0040 6f7c 4000 4006 4963 c0a8 0169  E..@o|@.@.Ic...i$
	0x0010:  3439 8b7e da68 024b 911e d599 84da 0ec5  49.~.h.K........$
	0x0020:  8018 01f5 0cc5 0000 0101 080a ae34 f42a  .............4.*$
	0x0030:  991e f772 6175 7468 206c 6f67 696e 0d0a  ...rauth.login..$
18:40:55.622688 fc:dd:55:fa:6d:0b > 68:14:01:02:bd:27, ethertype IPv4 (0x0800), length 66: (tos 0x0, ttl 146, id 34334, offset 0, flags [DF], proto TCP (6), length 52)$
    52.57.139.126.587 > 192.168.1.105.55912: Flags [.], cksum 0xe6b8 (correct), seq 178, ack 49, win 64, options [nop,nop,TS val 2568944485 ecr 2922705962], length 0$
	0x0000:  4500 0034 861e 4000 9206 e0dc 3439 8b7e  E..4..@.....49.~$
	0x0010:  c0a8 0169 024b da68 84da 0ec5 911e d5a5  ...i.K.h........$
	0x0020:  8010 0040 e6b8 0000 0101 080a 991e fb65  ...@...........e$
	0x0030:  ae34 f42a                                .4.*$
18:40:55.758818 fc:dd:55:fa:6d:0b > 68:14:01:02:bd:27, ethertype IPv4 (0x0800), length 84: (tos 0x0, ttl 146, id 34335, offset 0, flags [DF], proto TCP (6), length 70)$
    52.57.139.126.587 > 192.168.1.105.55912: Flags [P.], cksum 0x7c8b (correct), seq 178:196, ack 49, win 64, options [nop,nop,TS val 2568944627 ecr 2922705962], length 18$
	0x0000:  4500 0046 861f 4000 9206 e0c9 3439 8b7e  E..F..@.....49.~$
	0x0010:  c0a8 0169 024b da68 84da 0ec5 911e d5a5  ...i.K.h........$
	0x0020:  8018 0040 7c8b 0000 0101 080a 991e fbf3  ...@|...........$
	0x0030:  ae34 f42a 3333 3420 5658 4e6c 636d 3568  .4.*334.VXNlcm5h$
	0x0040:  6257 5536 0d0a                           bWU6..$
18:40:55.758920 68:14:01:02:bd:27 > fc:dd:55:fa:6d:0b, ethertype IPv4 (0x0800), length 66: (tos 0x10, ttl 64, id 28541, offset 0, flags [DF], proto TCP (6), length 52)$
    192.168.1.105.55912 > 52.57.139.126.587: Flags [.], cksum 0xe3a9 (correct), seq 49, ack 196, win 501, options [nop,nop,TS val 2922706148 ecr 2568944627], length 0$
	0x0000:  4510 0034 6f7d 4000 4006 496e c0a8 0169  E..4o}@.@.In...i$
	0x0010:  3439 8b7e da68 024b 911e d5a5 84da 0ed7  49.~.h.K........$
	0x0020:  8010 01f5 e3a9 0000 0101 080a ae34 f4e4  .............4..$
	0x0030:  991e fbf3                                ....$
18:40:56.917456 68:14:01:02:bd:27 > fc:dd:55:fa:6d:0b, ethertype IPv4 (0x0800), length 135: (tos 0x0, ttl 64, id 21204, offset 0, flags [DF], proto TCP (6), length 121)$
    192.168.1.105.37430 > 102.132.96.54.443: Flags [P.], cksum 0xbf22 (correct), seq 3544470274:3544470343, ack 1178883790, win 501, options [nop,nop,TS val 3392877712 ecr 918874437], length 69$
	0x0000:  4500 0079 52d4 4000 4006 5edf c0a8 0169  E..yR.@.@.^....i$
	0x0010:  6684 6036 9236 01bb d344 5302 4644 56ce  f.`6.6...DS.FDV.$
	0x0020:  8018 01f5 bf22 0000 0101 080a ca3b 3490  .....".......;4.$
	0x0030:  36c4 e945 1703 0300 4098 9241 400a e8fd  6..E....@..A@...$
	0x0040:  f0ff 8284 c675 f299 6d7e e21d 9c8c d485  .....u..m~......$
	0x0050:  5464 1343 ebc7 05fb 3b4a 6c94 71f3 7032  Td.C....;Jl.q.p2$
	0x0060:  edae 36fd 7ffd 955e e4d4 3f4d fb51 892f  ..6....^..?M.Q./$
	0x0070:  cfcb 323b 14db ae46 28                   ..2;...F($
18:40:56.962597 fc:dd:55:fa:6d:0b > 68:14:01:02:bd:27, ethertype IPv4 (0x0800), length 66: (tos 0x0, ttl 146, id 13711, offset 0, flags [DF], proto TCP (6), length 52)$
    102.132.96.54.443 > 192.168.1.105.37430: Flags [.], cksum 0x1b30 (correct), seq 1, ack 69, win 61, options [nop,nop,TS val 918898019 ecr 3392877712], length 0$
	0x0000:  4500 0034 358f 4000 9206 2a69 6684 6036  E..45.@...*if.`6$
	0x0010:  c0a8 0169 01bb 9236 4644 56ce d344 5347  ...i...6FDV..DSG$
	0x0020:  8010 003d 1b30 0000 0101 080a 36c5 4563  ...=.0......6.Ec$
	0x0030:  ca3b 3490                                .;4.$
18:40:57.182972 fc:dd:55:fa:6d:0b > 68:14:01:02:bd:27, ethertype IPv4 (0x0800), length 137: (tos 0x0, ttl 146, id 13712, offset 0, flags [DF], proto TCP (6), length 123)$
    102.132.96.54.443 > 192.168.1.105.37430: Flags [P.], cksum 0x30c6 (correct), seq 1:72, ack 69, win 61, options [nop,nop,TS val 918898246 ecr 3392877712], length 71$
	0x0000:  4500 007b 3590 4000 9206 2a21 6684 6036  E..{5.@...*!f.`6$
	0x0010:  c0a8 0169 01bb 9236 4644 56ce d344 5347  ...i...6FDV..DSG$
	0x0020:  8018 003d 30c6 0000 0101 080a 36c5 4646  ...=0.......6.FF$
	0x0030:  ca3b 3490 1703 0300 426b 52ce 6477 b250  .;4.....BkR.dw.P$
	0x0040:  0e24 86a8 0d95 478e 18af 77c8 6c62 96a6  .$....G...w.lb..$
	0x0050:  d9cc 58f9 1179 df37 9c5b e58a 51a4 dc6d  ..X..y.7.[..Q..m$
	0x0060:  821f 13de b0d9 48fe 3a9b c400 9ab8 0f8c  ......H.:.......$
	0x0070:  406c adc8 9b93 a85e 1a75 4d              @l.....^.uM$
18:40:57.183076 68:14:01:02:bd:27 > fc:dd:55:fa:6d:0b, ethertype IPv4 (0x0800), length 66: (tos 0x0, ttl 64, id 21205, offset 0, flags [DF], proto TCP (6), length 52)$
    192.168.1.105.37430 > 102.132.96.54.443: Flags [.], cksum 0x1745 (correct), seq 69, ack 72, win 501, options [nop,nop,TS val 3392877977 ecr 918898246], length 0$
	0x0000:  4500 0034 52d5 4000 4006 5f23 c0a8 0169  E..4R.@.@._#...i$
	0x0010:  6684 6036 9236 01bb d344 5347 4644 5715  f.`6.6...DSGFDW.$
	0x0020:  8010 01f5 1745 0000 0101 080a ca3b 3599  .....E.......;5.$
	0x0030:  36c5 4646                                6.FF$
18:40:57.576487 68:14:01:02:bd:27 > fc:dd:55:fa:6d:0b, ethertype IPv4 (0x0800), length 80: (tos 0x10, ttl 64, id 28542, offset 0, flags [DF], proto TCP (6), length 66)$
    192.168.1.105.55912 > 52.57.139.126.587: Flags [P.], cksum 0x9a5c (correct), seq 49:63, ack 196, win 501, options [nop,nop,TS val 2922707966 ecr 2568944627], length 14$
	0x0000:  4510 0042 6f7e 4000 4006 495f c0a8 0169  E..Bo~@.@.I_...i$
	0x0010:  3439 8b7e da68 024b 911e d5a5 84da 0ed7  49.~.h.K........$
	0x0020:  8018 01f5 9a5c 0000 0101 080a ae34 fbfe  .....\.......4..$
	0x0030:  991e fbf3 6258 6c73 6232 6470 6267 3d3d  ....bXlsb2dpbg==$
	0x0040:  0d0a                                     ..$
18:40:57.622711 fc:dd:55:fa:6d:0b > 68:14:01:02:bd:27, ethertype IPv4 (0x0800), length 66: (tos 0x0, ttl 146, id 34336, offset 0, flags [DF], proto TCP (6), length 52)$
    52.57.139.126.587 > 192.168.1.105.55912: Flags [.], cksum 0xd6f4 (correct), seq 196, ack 63, win 64, options [nop,nop,TS val 2568946485 ecr 2922707966], length 0$
	0x0000:  4500 0034 8620 4000 9206 e0da 3439 8b7e  E..4..@.....49.~$
	0x0010:  c0a8 0169 024b da68 84da 0ed7 911e d5b3  ...i.K.h........$
	0x0020:  8010 0040 d6f4 0000 0101 080a 991f 0335  ...@...........5$
	0x0030:  ae34 fbfe                                .4..$
18:40:57.769549 fc:dd:55:fa:6d:0b > 68:14:01:02:bd:27, ethertype IPv4 (0x0800), length 84: (tos 0x0, ttl 146, id 34337, offset 0, flags [DF], proto TCP (6), length 70)$
    52.57.139.126.587 > 192.168.1.105.55912: Flags [P.], cksum 0x49df (correct), seq 196:214, ack 63, win 64, options [nop,nop,TS val 2568946628 ecr 2922707966], length 18$
	0x0000:  4500 0046 8621 4000 9206 e0c7 3439 8b7e  E..F.!@.....49.~$
	0x0010:  c0a8 0169 024b da68 84da 0ed7 911e d5b3  ...i.K.h........$
	0x0020:  8018 0040 49df 0000 0101 080a 991f 03c4  ...@I...........$
	0x0030:  ae34 fbfe 3333 3420 5547 467a 6333 6476  .4..334.UGFzc3dv$
	0x0040:  636d 5136 0d0a                           cmQ6..$
18:40:57.769658 68:14:01:02:bd:27 > fc:dd:55:fa:6d:0b, ethertype IPv4 (0x0800), length 66: (tos 0x10, ttl 64, id 28543, offset 0, flags [DF], proto TCP (6), length 52)$
    192.168.1.105.55912 > 52.57.139.126.587: Flags [.], cksum 0xd3dd (correct), seq 63, ack 214, win 501, options [nop,nop,TS val 2922708159 ecr 2568946628], length 0$
	0x0000:  4510 0034 6f7f 4000 4006 496c c0a8 0169  E..4o.@.@.Il...i$
	0x0010:  3439 8b7e da68 024b 911e d5b3 84da 0ee9  49.~.h.K........$
	0x0020:  8010 01f5 d3dd 0000 0101 080a ae34 fcbf  .............4..$
	0x0030:  991f 03c4                                ....$
18:40:58.086414 68:14:01:02:bd:27 > fc:dd:55:fa:6d:0b, ethertype IPv4 (0x0800), length 66: (tos 0x0, ttl 64, id 7089, offset 0, flags [DF], proto TCP (6), length 52)$
    192.168.1.105.44418 > 104.17.24.14.443: Flags [.], cksum 0x9e1c (correct), seq 1458848209, ack 3034492427, win 501, options [nop,nop,TS val 3733462455 ecr 174777059], length 0$
	0x0000:  4500 0034 1bb1 4000 4006 dce2 c0a8 0169  E..4..@.@......i$
	0x0010:  6811 180e ad82 01bb 56f4 41d1 b4de ae0b  h.......V.A.....$
	0x0020:  8010 01f5 9e1c 0000 0101 080a de88 1db7  ................$
	0x0030:  0a6a e2e3                                .j..$
18:40:58.086545 68:14:01:02:bd:27 > fc:dd:55:fa:6d:0b, ethertype IPv4 (0x0800), length 66: (tos 0x0, ttl 64, id 2119, offset 0, flags [DF], proto TCP (6), length 52)$
    192.168.1.105.34898 > 104.24.136.8.443: Flags [.], cksum 0x8d6a (correct), seq 1031067816, ack 98473203, win 501, options [nop,nop,TS val 3181678166 ecr 2834236741], length 0$
	0x0000:  4500 0034 0847 4000 4006 804b c0a8 0169  E..4.G@.@..K...i$
	0x0010:  6818 8808 8852 01bb 3d74 d8a8 05de 94f3  h....R..=t......$
	0x0020:  8010 01f5 8d6a 0000 0101 080a bda4 8e56  .....j.........V$
	0x0030:  a8ef 0545                                ...E$
18:40:58.132753 fc:dd:55:fa:6d:0b > 68:14:01:02:bd:27, ethertype IPv4 (0x0800), length 66: (tos 0x0, ttl 146, id 35934, offset 0, flags [DF], proto TCP (6), length 52)$
    104.17.24.14.443 > 192.168.1.105.44418: Flags [.], cksum 0x97b0 (correct), seq 1, ack 1, win 67, options [nop,nop,TS val 174822224 ecr 3732960622], length 0$
	0x0000:  4500 0034 8c5e 4000 9206 1a35 6811 180e  E..4.^@....5h...$
	0x0010:  c0a8 0169 01bb ad82 b4de ae0b 56f4 41d2  ...i........V.A.$
	0x0020:  8010 0043 97b0 0000 0101 080a 0a6b 9350  ...C.........k.P$
	0x0030:  de80 756e                                ..un$
18:40:58.132831 fc:dd:55:fa:6d:0b > 68:14:01:02:bd:27, ethertype IPv4 (0x0800), length 66: (tos 0x0, ttl 146, id 46835, offset 0, flags [DF], proto TCP (6), length 52)$
    104.24.136.8.443 > 192.168.1.105.34898: Flags [.], cksum 0x8744 (correct), seq 1, ack 1, win 67, options [nop,nop,TS val 2834281906 ecr 3181176263], length 0$
	0x0000:  4500 0034 b6f3 4000 9206 7f9e 6818 8808  E..4..@.....h...$
	0x0010:  c0a8 0169 01bb 8852 05de 94f3 3d74 d8a9  ...i...R....=t..$
	0x0020:  8010 0043 8744 0000 0101 080a a8ef b5b2  ...C.D..........$
	0x0030:  bd9c e5c7                                ....$
18:40:59.192757 fc:dd:55:fa:6d:0b > 68:14:01:02:bd:27, ethertype ARP (0x0806), length 42: Ethernet (len 6), IPv4 (len 4), Request who-has 192.168.1.105 tell 192.168.1.1, length 28$
	0x0000:  0001 0800 0604 0001 fcdd 55fa 6d0b c0a8  ..........U.m...$
	0x0010:  0101 0000 0000 0000 c0a8 0169            ...........i$
18:40:59.192804 68:14:01:02:bd:27 > fc:dd:55:fa:6d:0b, ethertype ARP (0x0806), length 42: Ethernet (len 6), IPv4 (len 4), Reply 192.168.1.105 is-at 68:14:01:02:bd:27, length 28$
	0x0000:  0001 0800 0604 0002 6814 0102 bd27 c0a8  ........h....'..$
	0x0010:  0169 fcdd 55fa 6d0b c0a8 0101            .i..U.m.....$
18:40:59.579979 68:14:01:02:bd:27 > fc:dd:55:fa:6d:0b, ethertype IPv4 (0x0800), length 88: (tos 0x10, ttl 64, id 28544, offset 0, flags [DF], proto TCP (6), length 74)$
    192.168.1.105.55912 > 52.57.139.126.587: Flags [P.], cksum 0x2f20 (correct), seq 63:85, ack 214, win 501, options [nop,nop,TS val 2922709969 ecr 2568946628], length 22$
	0x0000:  4510 004a 6f80 4000 4006 4955 c0a8 0169  E..Jo.@.@.IU...i$
	0x0010:  3439 8b7e da68 024b 911e d5b3 84da 0ee9  49.~.h.K........$
	0x0020:  8018 01f5 2f20 0000 0101 080a ae35 03d1  ..../........5..$
	0x0030:  991f 03c4 6258 6c77 5958 4e7a 6432 3979  ....bXlwYXNzd29y$
	0x0040:  5a44 6b34 4f54 6768 0d0a                 ZDk4OTgh..$
18:40:59.622686 fc:dd:55:fa:6d:0b > 68:14:01:02:bd:27, ethertype IPv4 (0x0800), length 66: (tos 0x0, ttl 146, id 34338, offset 0, flags [DF], proto TCP (6), length 52)$
    52.57.139.126.587 > 192.168.1.105.55912: Flags [.], cksum 0xc72a (correct), seq 214, ack 85, win 64, options [nop,nop,TS val 2568948484 ecr 2922709969], length 0$
	0x0000:  4500 0034 8622 4000 9206 e0d8 3439 8b7e  E..4."@.....49.~$
	0x0010:  c0a8 0169 024b da68 84da 0ee9 911e d5c9  ...i.K.h........$
	0x0020:  8010 0040 c72a 0000 0101 080a 991f 0b04  ...@.*..........$
	0x0030:  ae35 03d1                                .5..$
18:40:59.870642 fc:dd:55:fa:6d:0b > 68:14:01:02:bd:27, ethertype IPv4 (0x0800), length 118: (tos 0x0, ttl 146, id 34339, offset 0, flags [DF], proto TCP (6), length 104)$
    52.57.139.126.587 > 192.168.1.105.55912: Flags [P.], cksum 0xd9ef (correct), seq 214:266, ack 85, win 64, options [nop,nop,TS val 2568948737 ecr 2922709969], length 52$
	0x0000:  4500 0068 8623 4000 9206 e0a3 3439 8b7e  E..h.#@.....49.~$
	0x0010:  c0a8 0169 024b da68 84da 0ee9 911e d5c9  ...i.K.h........$
	0x0020:  8018 0040 d9ef 0000 0101 080a 991f 0c01  ...@............$
	0x0030:  ae35 03d1 3533 3520 4175 7468 656e 7469  .5..535.Authenti$
	0x0040:  6361 7469 6f6e 2066 6169 6c65 643a 2042  cation.failed:.B$
	0x0050:  6164 2075 7365 726e 616d 6520 2f20 7061  ad.username./.pa$
	0x0060:  7373 776f 7264 0d0a                      ssword..$
18:40:59.870743 68:14:01:02:bd:27 > fc:dd:55:fa:6d:0b, ethertype IPv4 (0x0800), length 66: (tos 0x10, ttl 64, id 28545, offset 0, flags [DF], proto TCP (6), length 52)$
    192.168.1.105.55912 > 52.57.139.126.587: Flags [.], cksum 0xc321 (correct), seq 85, ack 266, win 501, options [nop,nop,TS val 2922710260 ecr 2568948737], length 0$
	0x0000:  4510 0034 6f81 4000 4006 496a c0a8 0169  E..4o.@.@.Ij...i$
	0x0010:  3439 8b7e da68 024b 911e d5c9 84da 0f1d  49.~.h.K........$
	0x0020:  8010 01f5 c321 0000 0101 080a ae35 04f4  .....!.......5..$
	0x0030:  991f 0c01                                ....$
18:40:59.870838 fc:dd:55:fa:6d:0b > 68:14:01:02:bd:27, ethertype IPv4 (0x0800), length 66: (tos 0x0, ttl 146, id 34340, offset 0, flags [DF], proto TCP (6), length 52)$
    52.57.139.126.587 > 192.168.1.105.55912: Flags [F.], cksum 0xc5f8 (correct), seq 266, ack 85, win 64, options [nop,nop,TS val 2568948737 ecr 2922709969], length 0$
	0x0000:  4500 0034 8624 4000 9206 e0d6 3439 8b7e  E..4.$@.....49.~$
	0x0010:  c0a8 0169 024b da68 84da 0f1d 911e d5c9  ...i.K.h........$
	0x0020:  8011 0040 c5f8 0000 0101 080a 991f 0c01  ...@............$
	0x0030:  ae35 03d1                                .5..$
18:40:59.871023 68:14:01:02:bd:27 > fc:dd:55:fa:6d:0b, ethertype IPv4 (0x0800), length 66: (tos 0x10, ttl 64, id 28546, offset 0, flags [DF], proto TCP (6), length 52)$
    192.168.1.105.55912 > 52.57.139.126.587: Flags [F.], cksum 0xc31f (correct), seq 85, ack 267, win 501, options [nop,nop,TS val 2922710260 ecr 2568948737], length 0$
	0x0000:  4510 0034 6f82 4000 4006 4969 c0a8 0169  E..4o.@.@.Ii...i$
	0x0010:  3439 8b7e da68 024b 911e d5c9 84da 0f1e  49.~.h.K........$
	0x0020:  8011 01f5 c31f 0000 0101 080a ae35 04f4  .............5..$
	0x0030:  991f 0c01                                ....$
18:40:59.922361 fc:dd:55:fa:6d:0b > 68:14:01:02:bd:27, ethertype IPv4 (0x0800), length 66: (tos 0x0, ttl 146, id 34341, offset 0, flags [DF], proto TCP (6), length 52)$
    52.57.139.126.587 > 192.168.1.105.55912: Flags [.], cksum 0xc4a6 (correct), seq 267, ack 86, win 64, options [nop,nop,TS val 2568948783 ecr 2922710260], length 0$
	0x0000:  4500 0034 8625 4000 9206 e0d5 3439 8b7e  E..4.%@.....49.~$
	0x0010:  c0a8 0169 024b da68 84da 0f1e 911e d5ca  ...i.K.h........$
	0x0020:  8010 0040 c4a6 0000 0101 080a 991f 0c2f  ...@.........../$
	0x0030:  ae35 04f4                                .5..$
18:41:00.298487 fc:dd:55:fa:6d:0b > 68:14:01:02:bd:27, ethertype IPv4 (0x0800), length 54: (tos 0x0, ttl 248, id 36450, offset 0, flags [none], proto TCP (6), length 40)$
    52.57.139.126.587 > 192.168.1.105.55912: Flags [R.], cksum 0x7618 (correct), seq 864798461, ack 3346997105, win 66, length 0$
	0x0000:  4500 0028 8e62 0000 f806 b2a4 3439 8b7e  E..(.b......49.~$
	0x0010:  c0a8 0169 024b da68 b865 d510 589d f4e5  ...i.K.h.e..X...$
	0x0020:  5014 0042 7618 0000                      P..Bv...$
18:41:00.681902 fc:dd:55:fa:6d:0b > 68:14:01:02:bd:27, ethertype IPv4 (0x0800), length 54: (tos 0x0, ttl 248, id 48627, offset 0, flags [none], proto TCP (6), length 40)$
    52.57.139.126.587 > 192.168.1.105.55912: Flags [R.], cksum 0x7618 (correct), seq 864798461, ack 3346997105, win 66, length 0$
	0x0000:  4500 0028 bdf3 0000 f806 8313 3439 8b7e  E..(........49.~$
	0x0010:  c0a8 0169 024b da68 b865 d510 589d f4e5  ...i.K.h.e..X...$
	0x0020:  5014 0042 7618 0000                      P..Bv...$
18:41:01.508502 fc:dd:55:fa:6d:0b > 68:14:01:02:bd:27, ethertype IPv4 (0x0800), length 54: (tos 0x0, ttl 248, id 48864, offset 0, flags [none], proto TCP (6), length 40)$
    52.57.139.126.587 > 192.168.1.105.55912: Flags [R.], cksum 0x7618 (correct), seq 864798461, ack 3346997105, win 66, length 0$
	0x0000:  4500 0028 bee0 0000 f806 8226 3439 8b7e  E..(.......&49.~$
	0x0010:  c0a8 0169 024b da68 b865 d510 589d f4e5  ...i.K.h.e..X...$
	0x0020:  5014 0042 7618 0000                      P..Bv...$
18:41:03.043432 fc:dd:55:fa:6d:0b > 68:14:01:02:bd:27, ethertype IPv4 (0x0800), length 54: (tos 0x0, ttl 248, id 41817, offset 0, flags [none], proto TCP (6), length 40)$
    52.57.139.126.587 > 192.168.1.105.55912: Flags [R.], cksum 0x7618 (correct), seq 864798461, ack 3346997105, win 66, length 0$
	0x0000:  4500 0028 a359 0000 f806 9dad 3439 8b7e  E..(.Y......49.~$
	0x0010:  c0a8 0169 024b da68 b865 d510 589d f4e5  ...i.K.h.e..X...$
	0x0020:  5014 0042 7618 0000                      P..Bv...$
